:02000000F728DF
:10000800DF00030E8301C3000A08C0008A010B1D2C
:100018001E2883120430850605191A280130B300FA
:100028004408C7004408FF3C81001D284708373EA4
:1000380081000B1183120C1C2928FC308F0017300B
:100048008E000C10C10A0319C20A40088A00430E28
:080058008300DF0E5F0E0900BA
:0C00600007308312DD00DD0B33280800A0
:10006C0082308312DC00DD30DD00DD0B3B28DC0B45
:08007C003B2800000000080011
:10008400C33083129F05F0309F05BF309F05F030C9
:1000940083169F0483129F174808D000D00D501078
:1000A400D00D501050089F041F1430209F149F1C23
:1000B4005D28000059281F101E08D100D0018316A6
:1000C4001E085004C9005108CA000030CA04490877
:0800D400D0004A08D100080029
:1000DC00831203132230DC00D801D901DA01DB01D1
:1000EC00DC030319A4280310DB0CDA0CD90CD80C94
:1000FC00D30CD20CD10CD00C031C7628DC030319C6
:10010C0096285408D80755080318550FD9075608D0
:10011C000318560FDA0757080318570FDB077A280E
:10012C005408D80755080318550FD9075608031853
:0E013C00560FDA0757080318570FDB070800A5
:10014A0083169C1CAA280000A52848089B00490879
:10015A009A009C131C150B08D0008B1355309D0078
:10016A00AA309D009C14D01BBC288B13BD288B176A
:04017A001C1108004C
:10017E008312480883169B009C131C141A08D10086
:06018E005108D00008003A
:1001940083124B084902031DD1284A084802031858
:1001A400EA284A08FF3CD0004B08031C013EFF3CF0
:1001B400D1004808D00749080318013ED107500868
:1001C400013ED20000300318013E5107D300F2284B
:1001D4004A084802D2004B08031C013E4902D300DE
:0A01E4005208D0005308D1000800B3
:1001EE00073083129900093083169F000514851479
:1001FE0005110516851283121F179F159F1785125D
:10020E0005156430C500C601C701C401C101C20194
:10021E005F30831681008B16BF01362036206400B6
:10022E008519352936203620C80142205008AA00EB
:10023E005108AB00C8012A08C900A5203620851632
:10024E000430DB008E30DC001230DD00DD0B2D299A
:10025E00DC0B2D29DB0B2D290000851264003620C6
:10026E00C801BF205008BF0050081F3C031840298A
:10027E00BF01831290121012901017308E00FC30B6
:10028E008F000C10A801A901AA01AB01A401A501C0
:10029E00A601A70183160C140B178B1783121014CB
:1002AE000A30C400FF30B600B901BA01BD01BE016B
:1002BE00BB01BC01B401B50164000230DB00863025
:1002CE00DC009930DD00DD0B6A29DC0B6A29DB0BC3
:1002DE006A2985160230DB008630DC009930DD009D
:1002EE00DD0B7729DC0B7729DB0B77298512640070
:1002FE00AE01AF014108AC004208AD004108C80094
:10030E004208C9003B08CA003C08CB00CA2051086D
:10031E004602031D94295008450203189C292C08F7
:10032E00BB002D08BC00203085064108AC004208F9
:10033E00AD004108C8004208C9002E08CA002F08A7
:10034E00CB00CA205108033C031DAF295008E83CDE
:10035E000318B4296400AE01AF013908B0003A08A1
:10036E00B1002808B9002908BA00B3013308003AD1
:10037E000319BD29C80142205008AA005108AB003C
:10038E000330C80042205008A8005108A9000130CF
:10039E00B200C80142205008B7005108B80003301F
:1003AE00C80042205008AC005108AD0038082B029E
:1003BE00031DE32937082A020318ED293708AA007E
:1003CE003808AB002C08A8002D08A9003208033A03
:1003DE000319F329B20AD029A80DA90D2810A80DCA
:1003EE00A90D28104108AC004208AD004108C80014
:1003FE004208C9003D08CA003E08CB00CA200030A2
:10040E005102031D0C2A1930500203180F2A8D2A8F
:10041E002C08BD002D08BE002408A0002508A10050
:10042E002608A2002708A3002808D0002908D1001A
:10043E00D201D3012A08D4002B08D500D601D7014A
:10044E006E205008A4005108A5005208A6005308BB
:10045E00A7002B08003C031D362A2A083F0203186A
:10046E00682A27082306031D462A26082206031D8E
:10047E00462A25082106031D462A24082006031DA8
:10048E004D2AF430C5000130C6008D2A23082702FC
:10049E00031D5B2A22082602031D5B2A2108250262
:1004AE00031D5B2A200824020318632A2C30C50082
:1004BE000130C600B609672A2C30C5000130C600CF
:1004CE00762AC830C500C6013C30C400FF30B600E5
:1004DE00A401A501A601A701AA01AB018D2A360828
:1004EE000319832AC830440203187F2AC40A822AB9
:1004FE00C830C400B6018D2A44080A3C0318892A64
:10050E00C4038D2A0A30C400FF30B60081298E2A1A
:02400E00DC31A3
:020000040000FA
:104200000400FF00FF000000FF00FF00FF00FF00B0
:10421000FF00FF00FF00FF00FF00FF00FF00FF00A6
:10422000FF00FF00FF00FF00FF00FF00FF00FF0096
:10423000FF00FF00FF00FF00FF00FF00FF00FF0086
:10424000FF00FF00FF00FF00FF00FF00FF00FF0076
:10425000FF00FF00FF00FF00FF00FF00FF00FF0066
:10426000FF00FF00FF00FF00FF00FF00FF00FF0056
:10427000FF00FF00FF00FF00FF00FF00FF00FF0046
:10428000FF00FF00FF00FF00FF00FF00FF00FF0036
:10429000FF00FF00FF00FF00FF00FF00FF00FF0026
:1042A000FF00FF00FF00FF00FF00FF00FF00FF0016
:1042B000FF00FF00FF00FF00FF00FF00FF00FF0006
:1042C000FF00FF00FF00FF00FF00FF00FF00FF00F6
:1042D000FF00FF00FF00FF00FF00FF00FF00FF00E6
:1042E000FF00FF00FF00FF00FF00FF00FF00FF00D6
:1042F000FF00FF00FF00FF00FF00FF00FF00FF00C6
:00000001FF

