:02000000BC281A
:10000800DF00030E8301B1000A08B2008A0150081C
:10001800A0000B1D26288312051C20283508B300D4
:100028003508003A031D1B28373081001F28330884
:10003800FF3C8100051024283308373E8100051451
:100048000B11362883120C1C3628B00A17308E0084
:10005800FC308F003008340203183528203085061C
:10006800B0010C102008D00032088A00310E83003D
:06007800DF0E5F0E09001F
:0C007E0007308312DD00DD0B4228080073
:10008A000D308312DC00FB30DD00DD0B4A28DC0B6F
:08009A004A28000000000800E4
:1000A200C33083129F05F0309F05F03083169F0402
:1000B20083129F173608D000D00D5010D00D50106B
:1000C20050089F041F143F209F149F1C6A280000A1
:1000D20066281F101E08D100D00183161E08500486
:1000E200B7005108B8000030B8043708D00038080B
:0400F200D100080031
:1000F60007308312DC007D30DD00DD0B8028DC0B51
:040106008028080045
:10010A00831203132230DC00D801D901DA01DB01A2
:10011A00DC030319BB280310DB0CDA0CD90CD80C4E
:10012A00D30CD20CD10CD00C031C8D28DC03031980
:10013A00AD285408D80755080318550FD90756088B
:10014A000318560FDA0757080318570FDB079128C9
:10015A005408D80755080318550FD9075608031825
:0E016A00560FDA0757080318570FDB07080077
:100178000730831299001C3083169F0005108514E0
:10018800051505168512831285120514FA30B40078
:10019800B301B501B001A301A401A501A601A10104
:1001A800A201FF30A700D030831681008B160B17F1
:1001B80083121016901083160C14173083128E00B9
:1001C800FC308F00AC01AD01AE01AF018B171014EC
:1001D80045203508003A031DF8280230B6005120A2
:1001E8005008A1005108A200270803190129C830A6
:1001F800350203180029B50A06293508003C0318FA
:100208000629B5037B200230B60051205008AE0005
:100218005108AF0051082202031D14295008210279
:10022800031858290330B60051205008AC00510873
:10023800AD000030D200D3002E08D4002F08D5001E
:10024800D601D70185205008A8005108A9005208F6
:10025800AA005308AB0026085302031D3D292508B0
:100268005202031D3D2924085102031D3D2923087C
:100278005002031C48292808A3002908A4002A08BA
:10028800A5002B08A6005729270803195129350866
:10029800003C03185029B5035629C8303502031805
:1002A8005629B50AA7095E29FF30A700A301A401B2
:1002B800A501A6012708031967293508C83A031DAF
:1002C8006629A7016D293508003A031D6D29FF30FD
:1002D800A7003508C83A031D74297D30B4007D296C
:1002E8003508003A031D7B294030B4007D29FA30D7
:0602F800B400ED287E2990
:02400E00D431AB
:00000001FF
