:02000000912845
:10000800DF00030E8301B5000A08B6008A01500814
:10001800A0000B1D2228231C1A2883122408A500DF
:100028002408FF3C8100051023102028831225088E
:10003800CD3E8100051423140B11322883120C1CA9
:100048003228A10A17308E00FC308F0021082202C6
:100058000318312820308506A1010C102008D00093
:0E00680036088A00350E8300DF0E5F0E090099
:0C00760007308312DD00DD0B3E2808007F
:1000820083123708023A031D48281F1149281F15F9
:100092001F143B209F149F184C281E08B90083167A
:1000A2001E08B80083121F103808D0003908D1008A
:0200B200080044
:1000B400831203132230DC00D801D901DA01DB01F9
:1000C400DC03031990280310DB0CDA0CD90CD80CD0
:1000D400D30CD20CD10CD00C031C6228DC03031902
:1000E40082285408D80755080318550FD90756080D
:1000F4000318560FDA0757080318570FDB0766284B
:100104005408D80755080318550FD907560803187B
:0E011400560FDA0757080318570FDB070800CD
:100122000730831299001C3083169F000510851436
:100132000515051685128312851205142314FA304B
:10014200A200A5010130A400A1011F179F159F174E
:100152005030831681008B160B17831210169010E5
:1001620083160C14173083128E00FC308F00AF01FF
:10017200B001AA01AB01A601A701A801A901AD0125
:10018200AE018B1710140130A400FF30AC00023016
:10019200B70041205008AA005108AB000330B70055
:1001A20041205008AF005108B0002A08D4002B08A3
:1001B200D500D601D7010030D200D3005A20500812
:1001C200B1005108B2005208B3005308B400290824
:1001D2005302031DF62828085202031DF628270899
:1001E2005102031DF628260850020318F928AC090B
:1001F2002C08031902293230240203180129A40A07
:1002020007292408013C03180729A40329083402FA
:10021200031D152928083302031D15292708320258
:10022200031D15292608310203181829C828310888
:10023200A6003208A7003308A8003408A900240841
:10024200323A031D27298030A20030292408013ABE
:10025200031D2E294030A2003029FA30A200C828FE
:02026200312940
:02400E00D431AB
:00000001FF
