:02000000FE28D8
:10000800DF00030E8301C3000A08C2008A010B1D2A
:100018001E2883120430850605191A280130A80005
:100028004108BC004108FF3C81001D283C08373EC0
:1000380081000B1183120C1C2928FC308F0017300B
:100048008E000C10BF0A0319C00A42088A00430E2A
:080058008300DF0E5F0E0900BA
:0C00600007308312DD00DD0B33280800A0
:10006C00C33083129F05F0309F05BF309F05F030E1
:10007C0083169F0483129F174508D000D00D501093
:10008C00D00D501050089F041F1430209F149F1C3B
:10009C00512800004D281F101E08D100D0018316D6
:1000AC001E085004C6005108C7000030C70446089B
:0800BC00D0004708D100080044
:1000C40082308312DC00DD30DD00DD0B6728DC0BC1
:0800D40067280000000008008D
:1000DC0083169C1C732800006E2845089B0046085C
:1000EC009A009C131C150B08D0008B1355309D00E7
:1000FC00AA309D009C14D01B85288B1386288B1747
:04010C001C110800BA
:0E01100010308312DD00DD0B8B28000008008C
:10011E00831248084602031D962847084502031815
:10012E00AF284708FF3CD0004808031C013EFF3CA7
:10013E00D1004508D00746080318013ED1075008E4
:10014E00013ED20000300318013E5107D300B728FC
:10015E0047084502D2004808031C013E4602D30060
:0A016E005208D0005308D100080029
:100178008312450883169B009C131C141A08D1008F
:060188005108D000080040
:10018E00831203132230DC00D801D901DA01DB011E
:10019E00DC030319FD280310DB0CDA0CD90CD80C88
:1001AE00D30CD20CD10CD00C031CCF28DC030319BA
:1001BE00EF285408D80755080318550FD9075608C5
:1001CE000318560FDA0757080318570FDB07D32803
:1001DE005408D80755080318550FD90756080318A1
:0E01EE00560FDA0757080318570FDB070800F3
:1001FC00073083129900093083169F00051485146B
:10020C0005110516851283121F179F159F1785124E
:10021C0005156430BD00BE01BC01C101BF01C001A8
:10022C005F30831681008B16C4016220622064004B
:10023C0085193C2962206220C50136205008BA007D
:10024C005108BB00C5013A08C6006E206220851615
:10025C000430DB008E30DC001230DD00DD0B342985
:10026C00DC0B3429DB0B342900008512640062207E
:10027C00C501BC205008C40050081F3C0318472976
:10028C00C401831290121012901017308E00FC30A3
:10029C008F000C10B001B101BA01BB01AC01AD0172
:1002AC00AE01AF0183160C140B178B1783121014AD
:1002BC001430C100FF30AB00A401A501A201A301C1
:1002CC0064000230DB008630DC009930DD00DD0B91
:1002DC006D29DC0B6D29DB0B6D2985160230DB00DB
:1002EC008630DC009930DD00DD0B7A29DC0B7A29B5
:1002FC00DB0B7A2985126400A001A1013F08A9003B
:10030C004008AA003F08C5004008C6002208C700E4
:10031C002308C8008F2051083E02031D972950085E
:10032C003D0203189F292908A2002A08A3002030A7
:10033C0085068519AE290D30DB00AF30DC00B630F8
:10034C00DD00DD0BA729DC0BA729DB0BA72900009F
:10035C003F08A9004008AA003F08C5004008C60095
:10036C002008C7002108C8008F205108033C031D3A
:10037C00C1295008E83C0318C6296400A001A1015A
:10038C00A8012808003A0319C7298820882088204A
:10039C008820C50136205008BA005108BB00033034
:1003AC00C50036205008A6005108A7005008B00020
:1003BC005108B100B00DB10D3010B00DB10D3010B1
:1003CC003F08A9004008AA003F08C5004008C60025
:1003DC002408C7002508C8008F2000305102031DD7
:1003EC00F929323050020318FC291F2B2908A400CC
:1003FC002A08A5002C08B2002D08B3002E08B40062
:10040C002F08B5003008D0003108D100D201D3013B
:10041C003A08D4003B08D500D601D701C7205008B4
:10042C00AC005108AD005208AE005308AF003A08BA
:10043C00D1003B08D200D301D4012608D1072708EC
:10044C000318270FD20728080318280FD3072908E9
:10045C000318290FD4075108D5005208D6005308A9
:10046C00D7005408D800D50DD60DD70DD80D551082
:10047C00D50DD60DD70DD80D55105508D1005608F1
:10048C00D2005708D3005808D400D10DD20DD30D8B
:10049C00D40D51105108B6005208B7005308B800DB
:1004AC005408B90000305402031D662A0030530270
:1004BC00031D662A00305202031D662A3230510297
:1004CC0003186D2A3230B600B701B801B9010530F6
:1004DC004407D1003B08003C031D762A3A08510220
:1004EC000318FD2A2F083506031D862A2E0834060C
:1004FC00031D862A2D083306031D862A2C08320676
:10050C00031D8D2AF430BD000130BE001F2B3508B1
:10051C002F02031D9B2A34082E02031D9B2A33082D
:10052C002D02031D9B2A32082C020318CD2A3208F7
:10053C00D1003308D2003408D3003508D4002C087D
:10054C00D1022D08031C2D0FD2022E08031C2E0FD6
:10055C00D3022F08031C2F0FD40239085402031D99
:10056C00C12A38085302031DC12A37085202031D41
:10057C00C12A360851020318C82AF430BD000130D4
:10058C00BE001F2B9630BD00BE01AB09FC2A2C0807
:10059C00D1002D08D2002E08D3002F08D400320829
:1005AC00D1023308031C330FD2023408031C340F5E
:1005BC00D3023508031C350FD40239085402031D2D
:1005CC00F12A38085302031DF12A37085202031D81
:1005DC00F12A360851020318F82AF430BD00013014
:1005EC00BE001F2B2C30BD000130BE00082B9630F6
:1005FC00BD00BE01FF30AB00AC01AD01AE01AF01DF
:10060C00BA01BB012B080319152B5A3041020318F0
:10061C00112BC10A142B5A30C100AB011F2B4108FE
:10062C000C3C03181B2BC1031F2B0C30C100FF30DB
:06063C00AB008429202B15
:02400E00DC31A3
:020000040000FA
:104200000400FF00FF000000FF00FF00FF00FF00B0
:10421000FF00FF00FF00FF00FF00FF00FF00FF00A6
:10422000FF00FF00FF00FF00FF00FF00FF00FF0096
:10423000FF00FF00FF00FF00FF00FF00FF00FF0086
:10424000FF00FF00FF00FF00FF00FF00FF00FF0076
:10425000FF00FF00FF00FF00FF00FF00FF00FF0066
:10426000FF00FF00FF00FF00FF00FF00FF00FF0056
:10427000FF00FF00FF00FF00FF00FF00FF00FF0046
:10428000FF00FF00FF00FF00FF00FF00FF00FF0036
:10429000FF00FF00FF00FF00FF00FF00FF00FF0026
:1042A000FF00FF00FF00FF00FF00FF00FF00FF0016
:1042B000FF00FF00FF00FF00FF00FF00FF00FF0006
:1042C000FF00FF00FF00FF00FF00FF00FF00FF00F6
:1042D000FF00FF00FF00FF00FF00FF00FF00FF00E6
:1042E000FF00FF00FF00FF00FF00FF00FF00FF00D6
:1042F000FF00FF00FF00FF00FF00FF00FF00FF00C6
:00000001FF

