:02000000DA28FC
:10000800DF00030E8301BA000A08BB008A010B1D3A
:100018001E283D1C182883123908BC003908FF3CEB
:10002800810005103D101D2883123C08810005142D
:100038003D140B113B088A003A0E8300DF0E5F0E59
:020048000900AD
:0C004A0007308312DD00DD0B28280800C1
:1000560082308312DC00DD30DD00DD0B3028DC0B66
:08006600302800000000080032
:10006E00C33083129F05F0309F05F03083169F0436
:10007E0083129F174308D000D00D5010D00D501092
:10008E0050089F041F1425209F149F1C5028000009
:10009E004C281F101E08D100D00183161E085004D4
:1000AE00C4005108C5000030C5044408D0004508FE
:0400BE00D100080065
:1000C20083120313D801D9011030DC00510DD80D71
:1000D200D90D5408D8025508031C550FD90203182C
:1000E20079285408D80755080318550FD907031063
:0A00F200D00DD10DDC0B67280800CB
:1000FC0083169C1C832800007E2843089B00440820
:10010C009A009C131C150B08D0008B1355309D00C6
:10011C00AA309D009C14D01B95288B1396288B1706
:04012C001C1108009A
:100130008312430883169B009C131C141A08D100D9
:060140005108D000080088
:10014600831203132230DC00D801D901DA01DB0166
:10015600DC030319D9280310DB0CDA0CD90CD80CF4
:10016600D30CD20CD10CD00C031CAB28DC03031926
:10017600CB285408D80755080318550FD907560831
:100186000318560FDA0757080318570FDB07AF286F
:100196005408D80755080318550FD90756080318E9
:0E01A600560FDA0757080318570FDB0708003B
:1001B4000730831299003C3083169F000510851484
:1001C4000515051685128312851205143D14FA309F
:1001D400BE00BC01B901B8011F179F159F175F30FE
:1001E400831681008B160430BF00831285190629FB
:1001F4002B200230C30037205008C1005108C20030
:10020400C3014108C4007E202B20C301982050085C
:10021400BF00C0010330C30098205008C0008312FF
:100224001016901017308E00FC308F00B101B2010F
:10023400C101C201AD01AE01AF01B001AC01B30116
:100244006430B700DC30B5000530B6008B171014ED
:100254000130B9000130B400FF30A300FF30A20028
:10026400A001A10183120C1C4429FC308F0017301B
:100274008E000C10B80A3E083802031C44292030B2
:100284008506B801FE303902031C4B294030BE00FC
:10029400542939083402031C52295A30BE00542907
:1002A4007830BE002D08A4002E08A5002F08A60053
:1002B4003008A7004108A0004208A100B101B20122
:1002C400C101C201AB010230C30037205008C1078D
:1002D40051080318013EC2070330C30037205008F9
:1002E400B10751080318013EB2072B08003A03195D
:1002F4007D29AB0A65294208003C031D8329410876
:100304003F0203188A293F08C102031CC2038C2937
:10031400C101C2014208003C031D92294108003C6E
:1003240003185F2A3408003A031D9A293908B400D7
:100334004108D0004208D100D201D3013108D400D1
:100344003208D500D601D701A3205008AD005108CA
:10035400AE005208AF005308B0002C08003AFF303A
:1003640003190030D50053082706031DC32952087A
:100374002606031DC32951082506031DC329500859
:100384002406FF30031D0030D40054085505D00066
:100394000319E729AA0142082102031DD3294108B0
:1003A40020020318D729A201E32921084202031DD0
:1003B400DD29200841020318E229FF30A200E329C5
:1003C400A209B301F030BE00342907302A02031811
:1003D400EC29AA0A27083002031DFA2926082F024D
:1003E400031DFA2925082E02031DFA2924082D02CB
:1003F40003185E2A3308AC003908B300A2092C089C
:10040400003AFF3003190030D1003908003AFF30B8
:1004140003190030D0005108D00503195E2AAA013F
:100424002C08A800A9013308A8070318A90AA80AD8
:100434000319A90AA90CA80CA9132808B900B30127
:100444002808FF3CD0000030031C013ED101D1023A
:100454000330D0070318D10A0630D400D501612037
:100464005008A8005108A90039085007A8005108ED
:100474000318013EA9002808A30001303902D00066
:100484000030031C013ED101D1020830D00703180B
:10049400D10A0F30D400D50161205008A8005108BA
:1004A400A90050083902A8005108031C013EA90103
:1004B400A9022808B40034296B2AAD01AE01AF01AA
:1004C400B0010730AA00FF30A200B301B401FF302D
:1004D400A300220803197B2A2A082302D100510809
:1004E40039020318782A2A08B9077A2A2308B90096
:1004F4008D2A2A08083CD00050083407D100390856
:10050400510203188B2A2A08083CD0005008B9026B
:0A0514008D2A3408B90034298E2A1C
:02400E00D431AB
:020000040000FA
:104200000400FF00FF000000FF00FF00FF00FF00B0
:10421000FF00FF00FF00FF00FF00FF00FF00FF00A6
:10422000FF00FF00FF00FF00FF00FF00FF00FF0096
:10423000FF00FF00FF00FF00FF00FF00FF00FF0086
:10424000FF00FF00FF00FF00FF00FF00FF00FF0076
:10425000FF00FF00FF00FF00FF00FF00FF00FF0066
:10426000FF00FF00FF00FF00FF00FF00FF00FF0056
:10427000FF00FF00FF00FF00FF00FF00FF00FF0046
:10428000FF00FF00FF00FF00FF00FF00FF00FF0036
:10429000FF00FF00FF00FF00FF00FF00FF00FF0026
:1042A000FF00FF00FF00FF00FF00FF00FF00FF0016
:1042B000FF00FF00FF00FF00FF00FF00FF00FF0006
:1042C000FF00FF00FF00FF00FF00FF00FF00FF00F6
:1042D000FF00FF00FF00FF00FF00FF00FF00FF00E6
:1042E000FF00FF00FF00FF00FF00FF00FF00FF00D6
:1042F000FF00FF00FF00FF00FF00FF00FF00FF00C6
:00000001FF

