:02000000C8280E
:10000800DF00030E8301C2000A08C1008A010B1D2C
:100018001E2883120130850605181A280130A7000A
:100028003B08BC003B08FF3C81001D283C08053EFE
:1000380081000B1183120C1C2928F8308F003030F6
:100048008E000C10BE0A0319BF0A41088A00420E2E
:080058008300DF0E5F0E0900BA
:0C00600007308312DD00DD0B33280800A0
:10006C0082308312DC00DD30DD00DD0B3B28DC0B45
:08007C003B2800000000080011
:10008400C33083129F05F0309F05F03083169F0420
:1000940083129F174508D000D00D5010D00D50107A
:1000A40050089F041F1430209F149F1C5B280000DD
:1000B40057281F101E08D100D00183161E085004B3
:1000C400C6005108C7000030C7044608D0004708DE
:0400D400D10008004F
:1000D800831203132230DC00D801D901DA01DB01D5
:1000E800DC030319A2280310DB0CDA0CD90CD80C9A
:1000F800D30CD20CD10CD00C031C7428DC030319CC
:1001080094285408D80755080318550FD9075608D6
:100118000318560FDA0757080318570FDB07782814
:100128005408D80755080318550FD9075608031857
:0E013800560FDA0757080318570FDB070800A9
:1001460083169C1CA8280000A32845089B00460887
:100156009A009C131C150B08D0008B1355309D007C
:10016600AA309D009C14D01BBA288B13BB288B1772
:040176001C11080050
:10017A008312450883169B009C131C141A08D1008D
:06018A005108D00008003E
:100190000730831299003C3083169F0005108514A8
:1001A00005150516851283121F179F159F178512B7
:1001B00005146430C000BC01BB01BE01BF015F304B
:1001C000831681008B16BD01362036206400851908
:1001D0000629362036200230C50042205008C300D0
:1001E0005108C400C5014308C600A3203620851667
:1001F0000430DB008E30DC001230DD00DD0BFE2829
:10020000DC0BFE28DB0BFE28000085126400362084
:10021000C501BD205008BD0050081F3C031811291E
:10022000BD01831290121012901030308E00F83001
:100230008F000C10AC01AD01C301C401B101B201CA
:10024000B301B40183160C140B178B17831210140F
:100250007830BB00B001AE01AF01AA01AB01A4012F
:10026000A501A201A30164000230DB008630DC009E
:100270009930DD00DD0B3A29DC0B3A29DB0B3A29FA
:1002800085160330DB008A30DC005530DD00DD0BE5
:100290004729DC0B4729DB0B4729000000008512AA
:1002A00064003E08A0003F08A10024083E02D100DF
:1002B0002508031C013E3F02D2005208003C031DEA
:1002C00063295108400203186C2983122008A400F6
:1002D0002108A500203085062E08A8002F08A900B7
:1002E0002C08AE002D08AF00A7012708003A03191B
:1002F00075290230C50042205008C3005108C400CF
:100300000330C50042205008AC005108AD00A601E2
:100310000230C50042205008B9005108BA0003302D
:10032000C50042205008A0005108A1005008AC07A9
:1003300051080318013EAD07AD0CAC0CAD133A08E3
:100340004402031DA529390843020318AB293908C3
:10035000C3003A08C4002608083A0319B129A60ABE
:100360008829AC0DAD0D2C10AC0DAD0D2C103E0838
:10037000A0003F08A1002A083E02D1002B08031C60
:10038000013E3F02D20000305202031DC9290F3046
:1003900051020318CC29672A64002008AA0021080A
:1003A000AB003108B5003208B6003308B700340896
:1003B000B8002C08D0002D08D100D201D301430889
:1003C000D4004408D500D601D7016C205008B100F4
:1003D0005108B2005208B3005308B4003E08A00010
:1003E0003F08A1003C08783C03180E2A220820028E
:1003F000D1002308031C013E2102D2005208083C10
:10040000031D042A5108CA3C03180D2A2008A20023
:100410002108A3003D08C300C401122A2008A2003D
:100420002108A3004408003C031D182A43083D028C
:100430000318442A34083806031D282A33083706CF
:10044000031D282A32083606031D282A31083506DE
:10045000031D2D2AFA30C000672A38083402031D14
:100460003B2A37083302031D3B2A36083202031D9C
:100470003B2A350831020318412A9630C000B009E2
:10048000432AC830C000502A6430C0007830BB0016
:10049000B001B101B201B301B401C301C401672AC3
:1004A000300803195D2AFA303B020318592ABB0AA7
:1004B0005C2AFA30BB00B001672A3B08013C0318F4
:1004C000632ABB03672A0130BB00FF30B00051290B
:0204D000682A98
:02400E009C31E3
:020000040000FA
:104200000400FF00FF000000FF00FF00FF00FF00B0
:10421000FF00FF00FF00FF00FF00FF00FF00FF00A6
:10422000FF00FF00FF00FF00FF00FF00FF00FF0096
:10423000FF00FF00FF00FF00FF00FF00FF00FF0086
:10424000FF00FF00FF00FF00FF00FF00FF00FF0076
:10425000FF00FF00FF00FF00FF00FF00FF00FF0066
:10426000FF00FF00FF00FF00FF00FF00FF00FF0056
:10427000FF00FF00FF00FF00FF00FF00FF00FF0046
:10428000FF00FF00FF00FF00FF00FF00FF00FF0036
:10429000FF00FF00FF00FF00FF00FF00FF00FF0026
:1042A000FF00FF00FF00FF00FF00FF00FF00FF0016
:1042B000FF00FF00FF00FF00FF00FF00FF00FF0006
:1042C000FF00FF00FF00FF00FF00FF00FF00FF00F6
:1042D000FF00FF00FF00FF00FF00FF00FF00FF00E6
:1042E000FF00FF00FF00FF00FF00FF00FF00FF00D6
:1042F000FF00FF00FF00FF00FF00FF00FF00FF00C6
:00000001FF

