:02000000DA28FC
:10000800DF00030E8301B8000A08B9008A010B1D3E
:100018001E283E1C182883123F08BD003F08FF3CDD
:10002800810005103E101D2883123D08810005142B
:100038003E140B1139088A00380E8300DF0E5F0E5C
:020048000900AD
:0C004A0007308312DD00DD0B28280800C1
:1000560082308312DC00DD30DD00DD0B3028DC0B66
:08006600302800000000080032
:10006E00C33083129F05F0309F05F03083169F0436
:10007E0083129F174008D000D00D5010D00D501095
:10008E0050089F041F1425209F149F1C5028000009
:10009E004C281F101E08D100D00183161E085004D4
:1000AE00C1005108C2000030C2044108D00042080D
:0400BE00D100080065
:1000C20083120313D801D9011030DC00510DD80D71
:1000D200D90D5408D8025508031C550FD90203182C
:1000E20079285408D80755080318550FD907031063
:0A00F200D00DD10DDC0B67280800CB
:1000FC0083169C1C832800007E2840089B00410826
:10010C009A009C131C150B08D0008B1355309D00C6
:10011C00AA309D009C14D01B95288B1396288B1706
:04012C001C1108009A
:100130008312400883169B009C131C141A08D100DC
:060140005108D000080088
:10014600831203132230DC00D801D901DA01DB0166
:10015600DC030319D9280310DB0CDA0CD90CD80CF4
:10016600D30CD20CD10CD00C031CAB28DC03031926
:10017600CB285408D80755080318550FD907560831
:100186000318560FDA0757080318570FDB07AF286F
:100196005408D80755080318550FD90756080318E9
:0E01A600560FDA0757080318570FDB0708003B
:1001B4000730831299003C3083169F000510851484
:1001C4000515051685128312851205143E14FA309E
:1001D400B600BD01BF01BA011F179F159F175F30FD
:1001E400831681008B160430B70083128519062903
:1001F4002B200230C00037205008BB005108BC003F
:10020400C0013B08C1007E202B20C001982050086B
:10021400B700B2010330C00098205008B200831226
:100224001016901017308E00FC308F00B001B10111
:10023400BB01BC01AC01AD01AE01AF01B501B4011C
:100244008B1710140130BF000130B300FF30AB0036
:10025400FF30A600A401A50183120C1C3E29FC302A
:100264008F0017308E000C10BA0A36083A02031CAD
:100274003E2920308506BA01FE303F02031C452981
:100284004030B6004E293F083302031C4C295A3033
:10029400B6004E297830B6002C08A0002D08A10025
:1002A4002E08A2002F08A3003B08A4003C08A500C8
:1002B400B001B101BB01BC01AA010230C00037206A
:1002C4005008BB0751080318013EBC070330C000A7
:1002D40037205008B00751080318013EB1072A0817
:1002E400003A03197729AA0A5F293C08003C031D38
:1002F4007D293B083702031884293708BB02031CF5
:10030400BC038629BB01BC013C08003C031D8C29AD
:100314003B08003C03184F2A3308003A031D942974
:100324003F08B3003B08D0003C08D100D201D30100
:100334003008D4003108D500D601D701A3205008D5
:10034400AC005108AD005208AE005308AF003508A8
:10035400003AFF3003190030D50053082306031D6B
:10036400BD2952082206031DBD2951082106031D7B
:10037400BD2950082006FF30031D0030D400540866
:100384005505D0000319E5293C082502031DCC2995
:100394003B0824020318D229A6013208A900E32944
:1003A40025083C02031DD82924083B020318DF2931
:1003B400FF30A6003208A900E329A901F030B600F5
:1003C400A609B4014E2A0B3029020318EA29A90A06
:1003D40023082F02031DF82922082E02031DF829E1
:1003E40021082D02031DF82920082C0203184E2A87
:1003F4003408B5003F08B400A6093508003AFF30B8
:1004040003190030D1003F08003AFF3003190030CF
:10041400D0005108D00503194E2AA9013508A700B8
:10042400A8013408A7070318A80AA80CA70CA81346
:100434002708BF00B4010030A8003F08FF3CD300E8
:100444000030031C013ED401D4025308D0005408E8
:10045400D100D10CD00CD113D10CD00CD113D10CB0
:10046400D00CD1135008A70751080318013EA80760
:100474002708AB000E30D400D5013F08D000D101CD
:10048400612050083F02A7005108031C013EA80147
:10049400A8022708B3002E295B2AAC01AD01AE01E6
:1004A400AF010B30A900FF30A600B401B301FF3047
:1004B400AB00260803196B2A29082B02D100510826
:1004C4003F020318682A2908BF076A2A2B08BF00BD
:1004D4007D2A29080C3CD00050083307D1003F087E
:1004E400510203187B2A29080C3CD0005008BF0293
:0A04F4007D2A3308BF002E297E2A5E
:02400E00D431AB
:020000040000FA
:104200000400FF00FF000000FF00FF00FF00FF00B0
:10421000FF00FF00FF00FF00FF00FF00FF00FF00A6
:10422000FF00FF00FF00FF00FF00FF00FF00FF0096
:10423000FF00FF00FF00FF00FF00FF00FF00FF0086
:10424000FF00FF00FF00FF00FF00FF00FF00FF0076
:10425000FF00FF00FF00FF00FF00FF00FF00FF0066
:10426000FF00FF00FF00FF00FF00FF00FF00FF0056
:10427000FF00FF00FF00FF00FF00FF00FF00FF0046
:10428000FF00FF00FF00FF00FF00FF00FF00FF0036
:10429000FF00FF00FF00FF00FF00FF00FF00FF0026
:1042A000FF00FF00FF00FF00FF00FF00FF00FF0016
:1042B000FF00FF00FF00FF00FF00FF00FF00FF0006
:1042C000FF00FF00FF00FF00FF00FF00FF00FF00F6
:1042D000FF00FF00FF00FF00FF00FF00FF00FF00E6
:1042E000FF00FF00FF00FF00FF00FF00FF00FF00D6
:1042F000FF00FF00FF00FF00FF00FF00FF00FF00C6
:00000001FF

