:02000000FE28D8
:10000800DF00030E8301C4000A08C3008A010B1D28
:100018001E2883120430850605191A280130A60007
:100028003C08BD003C08FF3C81001D283D08373EC8
:1000380081000B1183120C1C2928FC308F0017300B
:100048008E000C10BF0A0319C00A43088A00440E28
:080058008300DF0E5F0E0900BA
:0C00600007308312DD00DD0B33280800A0
:10006C00C33083129F05F0309F05BF309F05F030E1
:10007C0083169F0483129F174608D000D00D501092
:10008C00D00D501050089F041F1430209F149F1C3B
:10009C00512800004D281F101E08D100D0018316D6
:1000AC001E085004C7005108C8000030C804470897
:0800BC00D0004808D100080043
:1000C40082308312DC00DD30DD00DD0B6728DC0BC1
:0800D40067280000000008008D
:1000DC0083169C1C732800006E2846089B0047085A
:1000EC009A009C131C150B08D0008B1355309D00E7
:1000FC00AA309D009C14D01B85288B1386288B1747
:04010C001C110800BA
:0E01100010308312DD00DD0B8B28000008008C
:10011E00831249084702031D962848084602031811
:10012E00AF284808FF3CD0004908031C013EFF3CA5
:10013E00D1004608D00747080318013ED1075008E2
:10014E00013ED20000300318013E5107D300B728FC
:10015E0048084602D2004908031C013E4702D3005C
:0A016E005208D0005308D100080029
:100178008312460883169B009C131C141A08D1008E
:060188005108D000080040
:10018E00831203132230DC00D801D901DA01DB011E
:10019E00DC030319FD280310DB0CDA0CD90CD80C88
:1001AE00D30CD20CD10CD00C031CCF28DC030319BA
:1001BE00EF285408D80755080318550FD9075608C5
:1001CE000318560FDA0757080318570FDB07D32803
:1001DE005408D80755080318550FD90756080318A1
:0E01EE00560FDA0757080318570FDB070800F3
:1001FC00073083129900093083169F00051485146B
:10020C0005110516851283121F179F159F1785124E
:10021C0005156430C100C201BD01BC01BF01C001A4
:10022C00BE015F30831681008B16C50162206220EF
:10023C00640085193D2962206220C60136205008D1
:10024C00AC005108AD00C6012C08C7006E2062201E
:10025C0085160430DB008E30DC001230DD00DD0B47
:10026C003529DC0B3529DB0B3529000085126400A0
:10027C006220C601BC205008C50050081F3C031862
:10028C004829C501831290121012901017308E005D
:10029C00FC308F000C10B201B301AC01AD01AE010A
:1002AC00AF01B001B10183160C140B178B1783121D
:1002BC0010143C30BC00FF30AB00A401A501A2011E
:1002CC00A301A001A10164000230DB008630DC0038
:1002DC009930DD00DD0B7029DC0B7029DB0B7029EC
:1002EC0085160230DB008630DC009930DD00DD0B3A
:1002FC007D29DC0B7D29DB0B7D2985126400A9018E
:10030C00AA013F08A7004008A8003F08C600400803
:10031C00C7002008C8002108C9008F2051084202DC
:10032C00031D9A29500841020318A2292708A0008E
:10033C002808A100203085068519B1290D30DB0075
:10034C00AF30DC00B630DD00DD0BAA29DC0BAA29AE
:10035C00DB0BAA2900003F08A7004008A8003F08B3
:10036C00C6004008C7002908C8002A08C9008F2009
:10037C005108033C031DC4295008E83C0318C92943
:10038C006400A901AA012C08A4002D08A500A6014F
:10039C002608003A0319CE29882088208820882036
:1003AC00C60136205008AC005108AD000330C60021
:1003BC0036205008B2005108B3005008B200510862
:1003CC00B300B20DB30D3210B20DB30D32103F08A5
:1003DC00A7004008A8003F08C6004008C700220834
:1003EC00C8002308C9008F2000305102031D002AC9
:1003FC00283050020318032A422B2708A200280891
:10040C00A3002E08B8002F08B9003008BA00310834
:10041C00BB003208D0003308D100D201D3012C0824
:10042C00D4002D08D500D601D701C7205008AE0046
:10043C005108AF005208B0005308B1005108D90060
:10044C005208DA005308DB00DC010930D4005008F4
:10045C00D5005108D6005208D7005308D8005408CC
:10046C0003193F2AD80CD70CD60CD50CD813FF3E49
:10047C00362A5908D1005A08D2005B08D3005C0810
:10048C00D4005508D10756080318560FD207570841
:10049C000318570FD30758080318580FD4075108DF
:1004AC00B4005208B5005308B6005408B700003029
:1004BC005402031D6B2A00305302031D6B2A0730B4
:1004CC005202031D6B2AD03051020318732AD0300C
:1004DC00B4000730B500B601B7012D08003C031D70
:1004EC00792A2C08450203181C2B31083B06031DE6
:1004FC00892A30083A06031D892A2F083906031D5C
:10050C00892A2E083806031D912AF430C1000130C7
:10051C00C200BE01422B3B083102031D9F2A3A0840
:10052C003002031D9F2A39082F02031D9F2A380809
:10053C002E020318EA2A3808D1003908D2003A08EA
:10054C00D3003B08D4002E08D1022F08031C2F0F18
:10055C00D2023008031C300FD3023108031C310FB8
:10056C00D40237085402031DC52A36085302031D52
:10057C00C52A35085202031DC52A34085102031836
:10058C00CD2AF430C1000130C200BE01422B96309E
:10059C00C100C201BE0A02303E02FF30031C003013
:1005AC00D10025082D02031DDD2A24082C02FF3062
:1005BC0003180030D0005108D0050319E82AFF3089
:1005CC00AB00E92AAB091B2B2E08D1002F08D20057
:1005DC003008D3003108D4003808D1023908031C84
:1005EC00390FD2023A08031C3A0FD3023B08031C02
:1005FC003B0FD40237085402031D0E2B360853024E
:10060C00031D0E2B35085202031D0E2B340851020C
:10061C000318162BF430C1000130C200BE01422B6E
:10062C002C30C1000130C200BE012B2B9630C10012
:10063C00C2013C30BC00FF30AB00AE01AF01B001D9
:10064C00B101AC01AD01BE01422B2B080319382BB3
:10065C00C8303C020318342BBC0A372BC830BC0002
:10066C00AB01422B3C08143C03183E2BBC03422B21
:0C067C001430BC00FF30AB008729432B7A
:02400E00DC31A3
:020000040000FA
:104200000400FF00FF000000FF00FF00FF00FF00B0
:10421000FF00FF00FF00FF00FF00FF00FF00FF00A6
:10422000FF00FF00FF00FF00FF00FF00FF00FF0096
:10423000FF00FF00FF00FF00FF00FF00FF00FF0086
:10424000FF00FF00FF00FF00FF00FF00FF00FF0076
:10425000FF00FF00FF00FF00FF00FF00FF00FF0066
:10426000FF00FF00FF00FF00FF00FF00FF00FF0056
:10427000FF00FF00FF00FF00FF00FF00FF00FF0046
:10428000FF00FF00FF00FF00FF00FF00FF00FF0036
:10429000FF00FF00FF00FF00FF00FF00FF00FF0026
:1042A000FF00FF00FF00FF00FF00FF00FF00FF0016
:1042B000FF00FF00FF00FF00FF00FF00FF00FF0006
:1042C000FF00FF00FF00FF00FF00FF00FF00FF00F6
:1042D000FF00FF00FF00FF00FF00FF00FF00FF00E6
:1042E000FF00FF00FF00FF00FF00FF00FF00FF00D6
:1042F000FF00FF00FF00FF00FF00FF00FF00FF00C6
:00000001FF

