:02000000AD2829
:10000800DF00030E8301B9000A08B8008A0150080E
:10001800A0000B1D2228371C1A2883123608B300AB
:100028003608FF3C8100051037102028831233085A
:10003800D63E8100051437140B11322883120C1C8C
:100048003228B50A17308E00FC308F00350834028C
:100058000318312820308506B5010C102008D0007F
:0E00680038088A00390E8300DF0E5F0E090093
:0C00760007308312DD00DD0B3E2808007F
:1000820083123A0883169B009C131C141A08D10091
:060092005108D000080037
:10009800C33083129F05F0309F05F03083169F040C
:1000A80083129F173A08D000D00D5010D00D501071
:1000B80050089F041F143B209F149F1C65280000B4
:1000C80061281F101E08D100D00183161E08500495
:1000D800BB005108BC000030BC043B08D0003C0801
:0400E800D10008003B
:1000EC00831203132230DC00D801D901DA01DB01C1
:1000FC00DC030319AC280310DB0CDA0CD90CD80C7C
:10010C00D30CD20CD10CD00C031C7E28DC030319AD
:10011C009E285408D80755080318550FD9075608B8
:10012C000318560FDA0757080318570FDB078228F6
:10013C005408D80755080318550FD9075608031843
:0E014C00560FDA0757080318570FDB07080095
:10015A000730831299003C3083169F0005108514DE
:10016A000515051685128312851205143714FA30FF
:10017A00B400B301B601B5011F179F159F17503080
:10018A00831681008B160230AA00BA01412050085A
:10019A00AA000B1783121016901083160C1417302E
:1001AA0083128E00FC308F00A801A901AB01AC01BB
:1001BA00AF01B001B101B201AD01AE018B1710144C
:1001CA000130B600FF30A700AD01AE01A50128300D
:1001DA003602FF30031C0030D1003608013AFF30E6
:1001EA00031D0030D0005108D0040319FE28403006
:1001FA00B4002108AF002208B0002308B100240887
:10020A00B2002B08AD002C08AE00A6010330BA00DC
:10021A004C205008A80751080318013EA9070230CC
:10022A00BA004C205008AB0751080318013EAC072E
:10023A002608033A03192329A60A0B29A90CA80C94
:10024A00A913A90CA80CA9132B08D1002C08D200B9
:10025A00D20CD10CD213D20CD10CD2135108AB0050
:10026A005208AC005208003C031D3D2951082A02DD
:10027A00031844292A08AB02031CAC034629AB0124
:10028A00AC012B08D0002C08D100D201D3012808D8
:10029A00D4002908D500D601D70176205008A1003C
:1002AA005108A2005208A3005308A4002C08003CDD
:1002BA00031D61292B08003C031892298030B400E1
:1002CA0032082402031D732931082302031D7329EE
:1002DA0030082202031D73292F08210203187829E6
:1002EA00A709A501912924083206031D8629230896
:1002FA003106031D862922083006031D8629210896
:10030A002F06031D8F29250803198E29FA30B400F8
:10031A00EC289129FF30A5009729FF30A70040302B
:10032A00B400A50127080319A229293036020318A7
:10033A00A029B60AA129A701AA293608013C03184F
:0E034A00A829B603AA29FF30A700EC28AB298A
:02400E00D431AB
:020000040000FA
:104200000200FF00FF00FF00FF00FF00FF00FF00B3
:10421000FF00FF00FF00FF00FF00FF00FF00FF00A6
:10422000FF00FF00FF00FF00FF00FF00FF00FF0096
:10423000FF00FF00FF00FF00FF00FF00FF00FF0086
:10424000FF00FF00FF00FF00FF00FF00FF00FF0076
:10425000FF00FF00FF00FF00FF00FF00FF00FF0066
:10426000FF00FF00FF00FF00FF00FF00FF00FF0056
:10427000FF00FF00FF00FF00FF00FF00FF00FF0046
:10428000FF00FF00FF00FF00FF00FF00FF00FF0036
:10429000FF00FF00FF00FF00FF00FF00FF00FF0026
:1042A000FF00FF00FF00FF00FF00FF00FF00FF0016
:1042B000FF00FF00FF00FF00FF00FF00FF00FF0006
:1042C000FF00FF00FF00FF00FF00FF00FF00FF00F6
:1042D000FF00FF00FF00FF00FF00FF00FF00FF00E6
:1042E000FF00FF00FF00FF00FF00FF00FF00FF00D6
:1042F000FF00FF00FF00FF00FF00FF00FF00FF00C6
:00000001FF

