:02000000C8280E
:10000800DF00030E8301C2000A08C1008A010B1D2C
:100018001E2883120130850605181A280130A7000A
:100028003B08BC003B08FF3C81001D283C08053EFE
:1000380081000B1183120C1C2928F8308F003030F6
:100048008E000C10BE0A0319BF0A41088A00420E2E
:080058008300DF0E5F0E0900BA
:0C00600007308312DD00DD0B33280800A0
:10006C0082308312DC00DD30DD00DD0B3B28DC0B45
:08007C003B2800000000080011
:10008400C33083129F05F0309F05F03083169F0420
:1000940083129F174508D000D00D5010D00D50107A
:1000A40050089F041F1430209F149F1C5B280000DD
:1000B40057281F101E08D100D00183161E085004B3
:1000C400C6005108C7000030C7044608D0004708DE
:0400D400D10008004F
:1000D800831203132230DC00D801D901DA01DB01D5
:1000E800DC030319A2280310DB0CDA0CD90CD80C9A
:1000F800D30CD20CD10CD00C031C7428DC030319CC
:1001080094285408D80755080318550FD9075608D6
:100118000318560FDA0757080318570FDB07782814
:100128005408D80755080318550FD9075608031857
:0E013800560FDA0757080318570FDB070800A9
:1001460083169C1CA8280000A32845089B00460887
:100156009A009C131C150B08D0008B1355309D007C
:10016600AA309D009C14D01BBA288B13BB288B1772
:040176001C11080050
:10017A008312450883169B009C131C141A08D1008D
:06018A005108D00008003E
:100190000730831299003C3083169F0005108514A8
:1001A00005150516851283121F179F159F178512B7
:1001B00005146430C000BC01BB01BE01BF015F304B
:1001C000831681008B16BD01362036206400851908
:1001D0000629362036200230C50042205008C300D0
:1001E0005108C400C5014308C600A3203620851667
:1001F0000430DB008E30DC001230DD00DD0BFE2829
:10020000DC0BFE28DB0BFE28000085126400362084
:10021000C501BD205008BD0050081F3C031811291E
:10022000BD01831290121012901030308E00F83001
:100230008F000C10AC01AD01C301C401B101B201CA
:10024000B301B40183160C140B178B17831210140F
:100250000A30BB00FF30B000AE01AF01AA01AB0114
:10026000A401A501A201A30164000230DB008630D5
:10027000DC009930DD00DD0B3B29DC0B3B29DB0B7F
:100280003B2985160230DB008630DC009930DD002A
:10029000DD0B4829DC0B4829DB0B4829851264005B
:1002A0003E08A0003F08A10024083E02D100250816
:1002B000031C013E3F02D2005208003C031D62298C
:1002C0005108400203186B2983122008A40021085A
:1002D000A500203085062E08A8002F08A9002C08AC
:1002E000AE002D08AF00A7010230C5004220500823
:1002F000C3005108C4000330C50042205008AC00C0
:100300005108AD00A6010230C50042205008B900D6
:100310005108BA000330C50042205008A00051081F
:10032000A1005008AC0751080318013EAD07AD0C01
:10033000AC0CAD133A084402031DA029390843024E
:100340000318A6293908C3003A08C4002608033A4E
:100350000319AC29A60A8329AC0DAD0D2C10AC0DE8
:10036000AD0D2C103E08A0003F08A1002A083E0257
:10037000D1002B08031C013E3F02D2000030520284
:10038000031DC4290F3051020318C729632A6400D2
:100390002008AA002108AB003108B5003208B600D9
:1003A0003308B7003408B8002C08D0002D08D1005D
:1003B000D201D3014308D4004408D500D601D701A7
:1003C0006C205008B1005108B2005208B300530825
:1003D000B4003E08A0003F08A1003C08783C031888
:1003E000092A22082002D1002308031C013E210211
:1003F000D2005208083C031DFF295108CA3C0318CB
:10040000082A2008A2002108A3003D08C300C40157
:100410000D2A2008A2002108A3004408003C031D67
:10042000132A43083D0203183F2A34083806031DE7
:10043000232A33083706031D232A32083606031DF4
:10044000232A31083506031D282AFA30C000632A02
:1004500038083402031D362A37083302031D362AB2
:1004600036083202031D362A3508310203183C2AA9
:100470009630C000B0093E2AC830C0004C2A643013
:10048000C0000A30BB00FF30B000B101B201B301BF
:10049000B401C301C401632A30080319592AFA3090
:1004A0003B020318552ABB0A582AFA30BB00B00198
:1004B000632A3B080A3C03185F2ABB03632A0A30FD
:0A04C000BB00FF30B0005029642A91
:02400E00DC31A3
:020000040000FA
:104200000400FF00FF000000FF00FF00FF00FF00B0
:10421000FF00FF00FF00FF00FF00FF00FF00FF00A6
:10422000FF00FF00FF00FF00FF00FF00FF00FF0096
:10423000FF00FF00FF00FF00FF00FF00FF00FF0086
:10424000FF00FF00FF00FF00FF00FF00FF00FF0076
:10425000FF00FF00FF00FF00FF00FF00FF00FF0066
:10426000FF00FF00FF00FF00FF00FF00FF00FF0056
:10427000FF00FF00FF00FF00FF00FF00FF00FF0046
:10428000FF00FF00FF00FF00FF00FF00FF00FF0036
:10429000FF00FF00FF00FF00FF00FF00FF00FF0026
:1042A000FF00FF00FF00FF00FF00FF00FF00FF0016
:1042B000FF00FF00FF00FF00FF00FF00FF00FF0006
:1042C000FF00FF00FF00FF00FF00FF00FF00FF00F6
:1042D000FF00FF00FF00FF00FF00FF00FF00FF00E6
:1042E000FF00FF00FF00FF00FF00FF00FF00FF00D6
:1042F000FF00FF00FF00FF00FF00FF00FF00FF00C6
:00000001FF

