:020000009B283B
:10000800DF00030E8301B6000A08B7008A01500812
:10001800A0000B1D2128291C1A2883122A08AB00CE
:100028002A08FF3C8100051029101F2883122B087D
:100038008100051429140B11312883120C1C312856
:10004800A50A17308E00FC308F00250828020318F7
:10005800302820308506A5010C102008D00037086C
:0C0068008A00360E8300DF0E5F0E0900D8
:0C00740007308312DD00DD0B3D28080082
:100080008312380883169B009C131C141A08D10095
:060090005108D000080039
:1000960083123808023A031D52281F1153281F15D0
:1000A6001F143A209F149F1856281E08BA0083165C
:1000B6001E08B90083121F103908D0003A08D10073
:0200C600080030
:1000C800831203132230DC00D801D901DA01DB01E5
:1000D800DC0303199A280310DB0CDA0CD90CD80CB2
:1000E800D30CD20CD10CD00C031C6C28DC030319E4
:1000F8008C285408D80755080318550FD9075608EF
:100108000318560FDA0757080318570FDB0770282C
:100118005408D80755080318550FD9075608031867
:0E012800560FDA0757080318570FDB070800B9
:100136000730831299001C3083169F000510851422
:100146000515051685128312851205142914FA3031
:10015600A800AB01AA01A501A101A201A301A40166
:100166000230A600A701B80140205008A7000130C0
:10017600B80040205008A60083121F179F159F172E
:100186005030831681008B160B17831210169010B1
:1001960083160C14173083128E00FC308F00AE01CC
:1001A600AF01AC01AD018B171014F230AA00B001FB
:1001B600B1010230B8004B205008AC005108AD0028
:1001C60051082702031DE9285008260203182D2985
:1001D600B1010330B8004B205008AE005108AF0003
:1001E6000030D200D3002C08D4002D08D500D6014B
:1001F600D70164205008B2005108B3005208B40079
:100206005308B50024085302031D1329230852027C
:10021600031D132922085102031D13292108500228
:1002260003181629B009300803191F29FF302A02BE
:1002360003181E29AA0A24292A08003C031824297F
:10024600AA033208A1003308A2003408A300350827
:10025600A40040293109D00003193B29F230AA0035
:10026600B001A101A201A301A401FF30B100402900
:10027600FF302A0203184029AA0A2A08FF3A031D5A
:1002860047297D30A80054292D082702031D4D2932
:100296002C082602031C52294030A8005429FA30A3
:0602A600A800DC28552928
:02400E00D431AB
:020000040000FA
:1042000000000200FF00FF00FF00FF00FF00FF00B2
:10421000FF00FF00FF00FF00FF00FF00FF00FF00A6
:10422000FF00FF00FF00FF00FF00FF00FF00FF0096
:10423000FF00FF00FF00FF00FF00FF00FF00FF0086
:10424000FF00FF00FF00FF00FF00FF00FF00FF0076
:10425000FF00FF00FF00FF00FF00FF00FF00FF0066
:10426000FF00FF00FF00FF00FF00FF00FF00FF0056
:10427000FF00FF00FF00FF00FF00FF00FF00FF0046
:10428000FF00FF00FF00FF00FF00FF00FF00FF0036
:10429000FF00FF00FF00FF00FF00FF00FF00FF0026
:1042A000FF00FF00FF00FF00FF00FF00FF00FF0016
:1042B000FF00FF00FF00FF00FF00FF00FF00FF0006
:1042C000FF00FF00FF00FF00FF00FF00FF00FF00F6
:1042D000FF00FF00FF00FF00FF00FF00FF00FF00E6
:1042E000FF00FF00FF00FF00FF00FF00FF00FF00D6
:1042F000FF00FF00FF00FF00FF00FF00FF00FF00C6
:00000001FF

