:020000009C283A
:10000800DF00030E8301BA000A08BB008A0150080A
:10001800A0000B1D2228391C1A2883122C08A900BD
:100028002C08FF3C8100051039102028831229086C
:10003800323E8100051439140B11322883120C1C2E
:100048003228AB0A17308E00FC308F002B082A02AA
:100058000318312820308506AB010C102008D00089
:0E0068003B088A003A0E8300DF0E5F0E09008F
:0C00760007308312DD00DD0B3E2808007F
:1000820083123C0883169B009C131C141A08D1008F
:060092005108D000080037
:1000980083123C08023A031D53281F1154281F15C8
:1000A8001F143B209F149F1857281E08BE00831654
:1000B8001E08BD0083121F103D08D0003E08D10065
:0200C80008002E
:1000CA00831203132230DC00D801D901DA01DB01E3
:1000DA00DC0303199B280310DB0CDA0CD90CD80CAF
:1000EA00D30CD20CD10CD00C031C6D28DC030319E1
:1000FA008D285408D80755080318550FD9075608EC
:10010A000318560FDA0757080318570FDB07712829
:10011A005408D80755080318550FD9075608031865
:0E012A00560FDA0757080318570FDB070800B7
:100138000730831299001C3083169F000510851420
:100148000515051685128312851205143914FA301F
:10015800AA00A901AC01AB01A501A601A701A8014C
:100168000230A300A401A101A201BC014120500852
:10017800A4000130BC0041205008A30083121F17BF
:100188009F159F175030831681008B160B1783120B
:100198001016901083160C14173083128E00FC3042
:1001A8008F00B301B401AE01AF018B171014663094
:1001B800AC00FF30B200B001B101391CE128AD013B
:1001C8000230BC004C205008AE005108AF00500867
:1001D800B00751080318013EB1072D08033A031967
:1001E800F728AD0AE4283918F728AD010230BC0019
:1001F8004C205008AE005108AF005008B007510815
:100208000318013EB1072D08033A03190D29AD0A59
:10021800FA283008D1003108D200D20CD10CD21300
:10022800D20CD10CD213D20CD10CD2135108AE007F
:100238005208AF0052082402031D24295108230242
:10024800031871290330BC004C205008B300510832
:10025800B4000030D200D3002E08D4002F08D500F7
:10026800D601D70165205008B5005108B6005208DC
:10027800B7005308B80028085302031D4D29270862
:100288005202031D4D2926085102031D4D29250838
:10029800500203185129B2095A2922082F02031DB6
:1002A800572921082E0203185A29B20932080319BE
:1002B8006329CD302C0203186229AC0A68292C085E
:1002C800003C03186829AC033508A5003608A600C9
:1002D8003708A7003808A8007829CD30AC00B2014B
:1002E800A501A601A701A8012E08A1002F08A200B8
:1002F8002C08CD3A031D83297D30AA0090292F08A8
:100308002402031D89292E082302031C8E2940304C
:0C031800AA009029FA30AA00DF289129E1
:02400E00D431AB
:020000040000FA
:1042000000000200FF00FF00FF00FF00FF00FF00B2
:10421000FF00FF00FF00FF00FF00FF00FF00FF00A6
:10422000FF00FF00FF00FF00FF00FF00FF00FF0096
:10423000FF00FF00FF00FF00FF00FF00FF00FF0086
:10424000FF00FF00FF00FF00FF00FF00FF00FF0076
:10425000FF00FF00FF00FF00FF00FF00FF00FF0066
:10426000FF00FF00FF00FF00FF00FF00FF00FF0056
:10427000FF00FF00FF00FF00FF00FF00FF00FF0046
:10428000FF00FF00FF00FF00FF00FF00FF00FF0036
:10429000FF00FF00FF00FF00FF00FF00FF00FF0026
:1042A000FF00FF00FF00FF00FF00FF00FF00FF0016
:1042B000FF00FF00FF00FF00FF00FF00FF00FF0006
:1042C000FF00FF00FF00FF00FF00FF00FF00FF00F6
:1042D000FF00FF00FF00FF00FF00FF00FF00FF00E6
:1042E000FF00FF00FF00FF00FF00FF00FF00FF00D6
:1042F000FF00FF00FF00FF00FF00FF00FF00FF00C6
:00000001FF

