:02000000DA28FC
:10000800DF00030E8301BA000A08BB008A010B1D3A
:100018001E283D1C182883123908BC003908FF3CEB
:10002800810005103D101D2883123C08810005142D
:100038003D140B113B088A003A0E8300DF0E5F0E59
:020048000900AD
:0C004A0007308312DD00DD0B28280800C1
:1000560082308312DC00DD30DD00DD0B3028DC0B66
:08006600302800000000080032
:10006E00C33083129F05F0309F05F03083169F0436
:10007E0083129F174308D000D00D5010D00D501092
:10008E0050089F041F1425209F149F1C5028000009
:10009E004C281F101E08D100D00183161E085004D4
:1000AE00C4005108C5000030C5044408D0004508FE
:0400BE00D100080065
:1000C20083120313D801D9011030DC00510DD80D71
:1000D200D90D5408D8025508031C550FD90203182C
:1000E20079285408D80755080318550FD907031063
:0A00F200D00DD10DDC0B67280800CB
:1000FC0083169C1C832800007E2843089B00440820
:10010C009A009C131C150B08D0008B1355309D00C6
:10011C00AA309D009C14D01B95288B1396288B1706
:04012C001C1108009A
:100130008312430883169B009C131C141A08D100D9
:060140005108D000080088
:10014600831203132230DC00D801D901DA01DB0166
:10015600DC030319D9280310DB0CDA0CD90CD80CF4
:10016600D30CD20CD10CD00C031CAB28DC03031926
:10017600CB285408D80755080318550FD907560831
:100186000318560FDA0757080318570FDB07AF286F
:100196005408D80755080318550FD90756080318E9
:0E01A600560FDA0757080318570FDB0708003B
:1001B4000730831299003C3083169F000510851484
:1001C4000515051685128312851205143D14FA309F
:1001D400BE00BC01B901B8011F179F159F175F30FE
:1001E400831681008B160430BF00831285190829F9
:1001F4002B202B202B200230C30037205008C100B5
:100204005108C200C3014108C4007E202B20C30151
:1002140098205008BF00C0010330C3009820500844
:10022400C00083121016901017308E00FC308F001F
:10023400B101B201C101C201AD01AE01AF01B00112
:10024400AC01B3016430B700DC30B5000530B60052
:100254008B1710140130B9000130B400FF30A30033
:10026400FF30A200A001A10183120C1C4629FC301E
:100274008F0017308E000C10B80A3E083802031C99
:10028400462920308506B801FE303902031C4D2969
:100294004030BE00562939083402031C54295A3010
:1002A400BE0056297830BE002D08A4002E08A500F3
:1002B4002F08A6003008A7004108A0004208A100AA
:1002C400B101B201C101C201AB010230C300372048
:1002D4005008C10751080318013EC2070330C30088
:1002E40037205008B10751080318013EB2072B0804
:1002F400003A03197F29AB0A67293F08D100D201CC
:1003040042085202031D8829410851020318942906
:100314003F08D000D1015008C102031CC203510898
:10032400C2029629C101C2014208003C031D9C2956
:100334004108003C0318A22A3408003A031DA429EA
:100344003908B4004108D0004208D100D201D301D9
:100354003108D4003208D500D601D701A3205008B3
:10036400AD005108AE005208AF005308B000530866
:100374002706031DC72952082606031DC72951084D
:100384002506031DC72950082406031DE429AA01D4
:1003940042082102031DD029410820020318D42950
:1003A400A201E02921084202031DDA2920084102A2
:1003B4000318DF29FF30A200E029A209B301F030BD
:1003C400BE00362908302A020318E929AA0A270898
:1003D4003002031DF72926082F02031DF7292508DB
:1003E4002E02031DF72924082D0203189F2A390819
:1003F400AC00A2093308003A03199E2AAA01A901F4
:100404002C08A8003308D000D1015008A8075108CF
:100414000318013EA907A80A0319A90AA90CA80CE4
:10042400A9130330A8070318A90A2908003AFF30C2
:1004340003190030D1002808FF3CFF3003180030B6
:10044400D0005108D00403192C2AFF30A800003032
:10045400A900342A013028020318342A0130A800E4
:100464000030A9002808B900B3012808FF3CD000D7
:100474000030031C013ED101D1020330D007031820
:10048400D10A0630D400D50161205008A8005108D3
:10049400A9003908D200D30152085007A800510816
:1004A4000318013E5307A9002908003AFF30031935
:1004B4000030D1002808FF3CFF3003180030D00082
:1004C4005108D0040319692AFF30A800A90128089B
:1004D400A30001303902D0000030031C013ED101D9
:1004E400D1020830D0070318D10A0F30D400D50147
:1004F40061205008A8005108A9003908A800A901E2
:100504005008A802031CA9035108A9022908003AAB
:10051400FF3003190030D10001302802FF300318E6
:100524000030D0005108D00403199B2A0130A800E0
:10053400A9012808B4003629A12A3908B300AE2A33
:10054400AD01AE01AF01B0010830AA00FF30A20036
:10055400B301B401FF30A30022080319BE2A2A08FC
:100564002302D100510839020318BB2A2A08B9070B
:10057400BD2A2308B900D02A2A08093CD000500813
:100584003407D100390851020318CE2A2A08093C3D
:10059400D0005008B902D02A3408B9003629D12A2B
:02400E00D431AB
:020000040000FA
:104200000400FF00FF000000FF00FF00FF00FF00B0
:10421000FF00FF00FF00FF00FF00FF00FF00FF00A6
:10422000FF00FF00FF00FF00FF00FF00FF00FF0096
:10423000FF00FF00FF00FF00FF00FF00FF00FF0086
:10424000FF00FF00FF00FF00FF00FF00FF00FF0076
:10425000FF00FF00FF00FF00FF00FF00FF00FF0066
:10426000FF00FF00FF00FF00FF00FF00FF00FF0056
:10427000FF00FF00FF00FF00FF00FF00FF00FF0046
:10428000FF00FF00FF00FF00FF00FF00FF00FF0036
:10429000FF00FF00FF00FF00FF00FF00FF00FF0026
:1042A000FF00FF00FF00FF00FF00FF00FF00FF0016
:1042B000FF00FF00FF00FF00FF00FF00FF00FF0006
:1042C000FF00FF00FF00FF00FF00FF00FF00FF00F6
:1042D000FF00FF00FF00FF00FF00FF00FF00FF00E6
:1042E000FF00FF00FF00FF00FF00FF00FF00FF00D6
:1042F000FF00FF00FF00FF00FF00FF00FF00FF00C6
:00000001FF

