:020000009C283A
:10000800DF00030E8301B5000A08B6008A01500814
:10001800A0000B1D2228291C1A2883122A08AB00CD
:100028002A08FF3C810005102910202883122B087C
:10003800463E8100051429140B11322883120C1C2A
:100048003228A50A17308E00FC308F0025082802B8
:100058000318312820308506A5010C102008D0008F
:0E00680036088A00350E8300DF0E5F0E090099
:0C00760007308312DD00DD0B3E2808007F
:100082008312370883169B009C131C141A08D10094
:060092005108D000080037
:1000980083123708023A031D53281F1154281F15CD
:1000A8001F143B209F149F1857281E08B900831659
:1000B8001E08B80083121F103808D0003908D10074
:0200C80008002E
:1000CA00831203132230DC00D801D901DA01DB01E3
:1000DA00DC0303199B280310DB0CDA0CD90CD80CAF
:1000EA00D30CD20CD10CD00C031C6D28DC030319E1
:1000FA008D285408D80755080318550FD9075608EC
:10010A000318560FDA0757080318570FDB07712829
:10011A005408D80755080318550FD9075608031865
:0E012A00560FDA0757080318570FDB070800B7
:100138000730831299001C3083169F000510851420
:100148000515051685128312851205142914FA302F
:10015800A800AB010130AA00A501A101A201A301D9
:10016800A401B70141205008A7000130B700412081
:100178005008A60083121F179F159F17503083162B
:1001880081008B160B1783121016901083160C140F
:10019800173083128E00FC308F00AC01AD01B30123
:1001A800B4018B1710140130AA00FF30B2000230DE
:1001B800B7004C205008B3005108B4000330B70012
:1001C8004C205008AC005108AD000030D200D300DC
:1001D8003308D4003408D500D601D701652050086B
:1001E800AE005108AF005208B0005308B10024080F
:1001F8005302031D092923085202031D0929220855
:100208005102031D09292108500203180C29B209BB
:10021800320803191529B9302A0203181429AA0A21
:100228001A292A08013C03181A29AA032E08A10032
:100238002F08A2003008A3003108A4002A08B93A00
:10024800031D2929FA30A80032292A08013A031D7A
:1002580030294030A80032297D30A800DB28332916
:02400E00D431AB
:020000040000FA
:1042000000000200FF00FF00FF00FF00FF00FF00B2
:10421000FF00FF00FF00FF00FF00FF00FF00FF00A6
:10422000FF00FF00FF00FF00FF00FF00FF00FF0096
:10423000FF00FF00FF00FF00FF00FF00FF00FF0086
:10424000FF00FF00FF00FF00FF00FF00FF00FF0076
:10425000FF00FF00FF00FF00FF00FF00FF00FF0066
:10426000FF00FF00FF00FF00FF00FF00FF00FF0056
:10427000FF00FF00FF00FF00FF00FF00FF00FF0046
:10428000FF00FF00FF00FF00FF00FF00FF00FF0036
:10429000FF00FF00FF00FF00FF00FF00FF00FF0026
:1042A000FF00FF00FF00FF00FF00FF00FF00FF0016
:1042B000FF00FF00FF00FF00FF00FF00FF00FF0006
:1042C000FF00FF00FF00FF00FF00FF00FF00FF00F6
:1042D000FF00FF00FF00FF00FF00FF00FF00FF00E6
:1042E000FF00FF00FF00FF00FF00FF00FF00FF00D6
:1042F000FF00FF00FF00FF00FF00FF00FF00FF00C6
:00000001FF

