:02000000A02836
:10000800DF00030E8301BA000A08B9008A0150080C
:10001800A0000B1D2528381C1A2883123708B400A5
:100028003708FF3C81000510381024288312340853
:10003800803E81006C3034020318232805143814DC
:100048000B112008D00039088A003A0E8300DF0E11
:040058005F0E09002E
:0C005C0007308312DD00DD0B31280800A6
:1000680083123B0883169B009C131C141A08D100AA
:060078005108D000080051
:10007E00C33083129F05F0309F05F03083169F0426
:10008E0083129F173B08D000D00D5010D00D50108A
:10009E0050089F041F142E209F149F1C58280000E8
:1000AE0054281F101E08D100D00183161E085004BC
:1000BE00BC005108BD000030BD043C08D0003D0816
:0400CE00D100080055
:1000D200831203132230DC00D801D901DA01DB01DB
:1000E200DC0303199F280310DB0CDA0CD90CD80CA3
:1000F200D30CD20CD10CD00C031C7128DC030319D5
:1001020091285408D80755080318550FD9075608DF
:100112000318560FDA0757080318570FDB0775281D
:100122005408D80755080318550FD907560803185D
:0E013200560FDA0757080318570FDB070800AF
:100140000730831299003C3083169F0005108514F8
:100150000515051685128312851205143814FA3018
:10016000B500B401B701B6011F179F159F1758308E
:10017000831681008B160230B300BB013420500877
:10018000B30083121016901017308E00FC308F00D1
:10019000AA01AB01A801A901AC01AD01AE01AF01FB
:1001A000B101B2018B1710140130B700FF30B0005D
:1001B000B101B201A70183120C1CEB28FC308F00A7
:1001C00017308E000C10B60A35083602031CEB28D7
:1001D00020308506B6017E303702FF30031C003028
:1001E000D1003708013AFF30031D0030D00051081C
:1001F000D0040319FD284030B5002208AC002308C4
:10020000AD002408AE002508AF002808B100290879
:10021000B200A1010330BB003F205008AA075108DB
:100220000318013EAB070230BB003F205008A8076F
:1002300051080318013EA9072108013A0319222990
:10024000A10A0A29AB0CAA0CAB132808D100290873
:10025000D200D20CD10CD2135108A8005208A90028
:100260005208003C031D36295108330203183D296A
:100270003308A802031CA9033F29A801A9012808E3
:10028000D0002908D100D201D3012A08D4002B08BC
:10029000D500D601D70169205008A2005108A3005B
:1002A0005208A4005308A5002908003C031D5A2940
:1002B0002808003C0318A82925082F06031D6A29D1
:1002C00024082E06031D6A2923082D06031D6A290A
:1002D00022082C06031D8B2929083202031D7229CE
:1002E00028083102031877292030B5008529320803
:1002F0002902031D7D293108280203188229203094
:10030000B5008529F030B500B0092608013C031876
:100310008A29A603A7297830B5000330A6002F0844
:100320002502031D9D292E082402031D9D292D0849
:100330002302031D9D292C0822020318A729300936
:10034000D0000319A629FF30B000A729B001AE29BB
:10035000FF30B0000330A6004030B500300803196C
:10036000BE2926087F3CD100510837020318BB295B
:100370002608B707BD297F30B700CF292608043CDF
:10038000D000500AD100370851020318CD292608A1
:10039000043CD0005008B702CF290130B700DB2859
:0203A000D02962
:02400E00D431AB
:020000040000FA
:104200000200FF00FF00FF00FF00FF00FF00FF00B3
:10421000FF00FF00FF00FF00FF00FF00FF00FF00A6
:10422000FF00FF00FF00FF00FF00FF00FF00FF0096
:10423000FF00FF00FF00FF00FF00FF00FF00FF0086
:10424000FF00FF00FF00FF00FF00FF00FF00FF0076
:10425000FF00FF00FF00FF00FF00FF00FF00FF0066
:10426000FF00FF00FF00FF00FF00FF00FF00FF0056
:10427000FF00FF00FF00FF00FF00FF00FF00FF0046
:10428000FF00FF00FF00FF00FF00FF00FF00FF0036
:10429000FF00FF00FF00FF00FF00FF00FF00FF0026
:1042A000FF00FF00FF00FF00FF00FF00FF00FF0016
:1042B000FF00FF00FF00FF00FF00FF00FF00FF0006
:1042C000FF00FF00FF00FF00FF00FF00FF00FF00F6
:1042D000FF00FF00FF00FF00FF00FF00FF00FF00E6
:1042E000FF00FF00FF00FF00FF00FF00FF00FF00D6
:1042F000FF00FF00FF00FF00FF00FF00FF00FF00C6
:00000001FF

