:02000000F728DF
:10000800DF00030E8301C1000A08C0008A010B1D2E
:100018001E2883120430850605191A280130A70006
:100028003908BA003908FF3C81001D283A08373ED4
:1000380081000B1183120C1C2928FC308F0017300B
:100048008E000C10BC0A0319BD0A40088A00410E34
:080058008300DF0E5F0E0900BA
:0C00600007308312DD00DD0B33280800A0
:10006C0082308312DC00DD30DD00DD0B3B28DC0B45
:08007C003B2800000000080011
:10008400C33083129F05F0309F05BF309F05F030C9
:1000940083169F0483129F174408D000D00D50107C
:1000A400D00D501050089F041F1430209F149F1C23
:1000B4005D28000059281F101E08D100D0018316A6
:1000C4001E085004C5005108C6000030C604450887
:0800D400D0004608D10008002D
:1000DC00831203132230DC00D801D901DA01DB01D1
:1000EC00DC030319A4280310DB0CDA0CD90CD80C94
:1000FC00D30CD20CD10CD00C031C7628DC030319C6
:10010C0096285408D80755080318550FD9075608D0
:10011C000318560FDA0757080318570FDB077A280E
:10012C005408D80755080318550FD9075608031853
:0E013C00560FDA0757080318570FDB070800A5
:10014A0083169C1CAA280000A52844089B00450881
:10015A009A009C131C150B08D0008B1355309D0078
:10016A00AA309D009C14D01BBC288B13BD288B176A
:04017A001C1108004C
:10017E008312440883169B009C131C141A08D1008A
:06018E005108D00008003A
:10019400831247084502031DD12846084402031868
:1001A400EA284608FF3CD0004708031C013EFF3CF8
:1001B400D1004408D00745080318013ED107500870
:1001C400013ED20000300318013E5107D300F2284B
:1001D40046084402D2004708031C013E4502D300EE
:0A01E4005208D0005308D1000800B3
:1001EE00073083129900093083169F000514851479
:1001FE0005110516851283121F179F159F1785125D
:10020E0005156430BE00BF01BA01B901BC01BD01C4
:10021E005F30831681008B16BB01362036206400BA
:10022E008519352936203620C40142205008C200D7
:10023E005108C300C4014208C500A520362085160A
:10024E000430DB008E30DC001230DD00DD0B2D299A
:10025E00DC0B2D29DB0B2D290000851264003620C6
:10026E00C401BF205008BB0050081F3C0318402992
:10027E00BB01831290121012901017308E00FC30BA
:10028E008F000C10B101B201C201C301AD01AE016C
:10029E00AF01B00183160C140B178B1783121014B9
:1002AE003C30B900FF30AC00AA01AB01A401A5019E
:1002BE00A201A30164000230DB008630DC0099301D
:1002CE00DD00DD0B6829DC0B6829DB0B6829851640
:1002DE000230DB008630DC009930DD00DD0B752945
:1002EE00DC0B7529DB0B752985126400A001A101B9
:1002FE003C08A8003D08A9003C08C4003D08C50004
:10030E002208C6002308C700CA2051083F02031D59
:10031E00922950083E0203189A292808A20029089B
:10032E00A300203085063C08A8003D08A9003C0823
:10033E00C4003D08C5002008C6002108C700CA2019
:10034E005108033C031DAD295008E83C0318B2299F
:10035E006400A001A1014208AA004308AB00A70156
:10036E002708003A0319B729C40142205008C200D9
:10037E005108C3000330C40042205008B100510898
:10038E00B2000130A600C40142205008B700510847
:10039E00B8000330C40042205008A8005108A9003C
:1003AE0038084302031DDD29370842020318E729E6
:1003BE003708C2003808C3002808B1002908B20067
:1003CE002608033A0319ED29A60ACA29B10DB20D62
:1003DE003110B10DB20D31103C08A8003D08A90036
:1003EE003C08C4003D08C5002408C6002508C70007
:1003FE00CA2000305102031D062A2830500203186D
:10040E00092A922A2808A4002908A5002D08B3005D
:10041E002E08B4002F08B5003008B6003108D00001
:10042E003208D100D201D3014208D4004308D500CE
:10043E00D601D7016E205008AD005108AE0052080B
:10044E00AF005308B0004308003C031D302A420899
:10045E003B0203186D2A30083606031D402A2F086A
:10046E003506031D402A2E083406031D402A2D088A
:10047E003306031D472AF430BE000130BF00922A16
:10048E0036083002031D552A35082F02031D552A42
:10049E0034082E02031D552A33082D020318682A2C
:1004AE002C30BE000130BF002B084302031D612A11
:1004BE002A0842020318662AFF30AC00672AAC09EC
:1004CE006C2A2C30BE000130BF007B2AC830BE0023
:1004DE00BF013C30B900FF30AC00AD01AE01AF0141
:1004EE00B001C201C301922A2C080319882AC83010
:1004FE0039020318842AB90A872AC830B900AC0118
:10050E00922A39080A3C03188E2AB903922A0A3015
:0A051E00B900FF30AC007F29932ADA
:02400E00DC31A3
:020000040000FA
:104200000400FF00FF000000FF00FF00FF00FF00B0
:10421000FF00FF00FF00FF00FF00FF00FF00FF00A6
:10422000FF00FF00FF00FF00FF00FF00FF00FF0096
:10423000FF00FF00FF00FF00FF00FF00FF00FF0086
:10424000FF00FF00FF00FF00FF00FF00FF00FF0076
:10425000FF00FF00FF00FF00FF00FF00FF00FF0066
:10426000FF00FF00FF00FF00FF00FF00FF00FF0056
:10427000FF00FF00FF00FF00FF00FF00FF00FF0046
:10428000FF00FF00FF00FF00FF00FF00FF00FF0036
:10429000FF00FF00FF00FF00FF00FF00FF00FF0026
:1042A000FF00FF00FF00FF00FF00FF00FF00FF0016
:1042B000FF00FF00FF00FF00FF00FF00FF00FF0006
:1042C000FF00FF00FF00FF00FF00FF00FF00FF00F6
:1042D000FF00FF00FF00FF00FF00FF00FF00FF00E6
:1042E000FF00FF00FF00FF00FF00FF00FF00FF00D6
:1042F000FF00FF00FF00FF00FF00FF00FF00FF00C6
:00000001FF

