:0200000097283F
:10000800DF00030E8301B8000A08B4008A010B1D43
:100018001E28391C182883123508B7003508FF3CFC
:100028008100051039101D28831237088100051436
:1000380039140B1134088A00380E8300DF0E5F0E66
:020048000900AD
:0C004A0007308312DD00DD0B28280800C1
:1000560083123B0883169B009C131C141A08D100BC
:060066005108D000080063
:10006C00C33083129F05F0309F05F03083169F0438
:10007C0083129F173B08D000D00D5010D00D50109C
:10008C0050089F041F1425209F149F1C4F2800000C
:10009C004B281F101E08D100D00183161E085004D7
:1000AC00BC005108BD000030BD043C08D0003D0828
:0400BC00D100080067
:1000C000831203132230DC00D801D901DA01DB01ED
:1000D000DC03031996280310DB0CDA0CD90CD80CBE
:1000E000D30CD20CD10CD00C031C6828DC030319F0
:1000F00088285408D80755080318550FD9075608FB
:100100000318560FDA0757080318570FDB076C2838
:100110005408D80755080318550FD907560803186F
:0E012000560FDA0757080318570FDB070800C1
:10012E000730831299003C3083169F00051085140A
:10013E000515051685128312851205143914FA3029
:10014E00B300B701B501B6011F179F159F175F309A
:10015E00831681008B160430BA00BB012B20500889
:10016E00BA0083121016901017308E00FC308F00DC
:10017E00AE01AF01AC01AD01A801A901AA01AB010D
:10018E00B201B1018B1710140130B500FF30B00071
:10019E00A501A60183120C1CE128FC308F0017303C
:1001AE008E000C10B60A33083602031CE1282030EC
:1001BE008506B601FE303502031CE8284030B30038
:1001CE00F1283508013A031DEF285A30B300F12803
:1001DE007830B3002808A1002908A2002A08A3003D
:1001EE002B08A4002C08A5002D08A600AE01AF0117
:1001FE00AC01AD01A0010230BB0036205008AC07A7
:10020E0051080318013EAD070330BB0036205008DD
:10021E00AE0751080318013EAF072008003A031934
:10022E001A29A00A02292D08003C031D20292C089A
:10023E003A02031827293A08AC02031CAD032929F8
:10024E00AC01AD012D08003C031D2F292C08003CEC
:10025E000318A5292C08D0002D08D100D201D301F6
:10026E002E08D4002F08D500D601D70160205008E3
:10027E00A8005108A9005208AA005308AB00530861
:10028E002406031D542952082306031D5429510820
:10029E002206031D542950082106031D70292D081E
:1002AE002602031D5C292C08250203186029B001C3
:1002BE006F2926082D02031D662925082C02031816
:1002CE006B29FF30B0006F29A701F030B300B009E1
:1002DE00A4290A30270203187529A70A24082B021D
:1002EE00031D832923082A02031D832922082902BC
:1002FE00031D8329210828020318A3293108B200FF
:10030E003508B100B0093208003AFF300319003049
:10031E00D1003508003AFF3003190030D0005108E3
:10032E00D0050319A229A70131083207B500B50C73
:10033E00B513B101D128A429B101AE29A801A90193
:10034E00AA01AB010A30A700FF30B000B10130089E
:10035E000319BE292708FF3CD100510835020318A6
:10036E00BB292708B507BD29FF30B500CF292708BF
:10037E000B3CD000500AD100350851020318CD298C
:10038E0027080B3CD0005008B502CF290130B5002C
:04039E00D128D02969
:02400E00D431AB
:020000040000FA
:104200000400FF00FF00FF00FF00FF00FF00FF00B1
:10421000FF00FF00FF00FF00FF00FF00FF00FF00A6
:10422000FF00FF00FF00FF00FF00FF00FF00FF0096
:10423000FF00FF00FF00FF00FF00FF00FF00FF0086
:10424000FF00FF00FF00FF00FF00FF00FF00FF0076
:10425000FF00FF00FF00FF00FF00FF00FF00FF0066
:10426000FF00FF00FF00FF00FF00FF00FF00FF0056
:10427000FF00FF00FF00FF00FF00FF00FF00FF0046
:10428000FF00FF00FF00FF00FF00FF00FF00FF0036
:10429000FF00FF00FF00FF00FF00FF00FF00FF0026
:1042A000FF00FF00FF00FF00FF00FF00FF00FF0016
:1042B000FF00FF00FF00FF00FF00FF00FF00FF0006
:1042C000FF00FF00FF00FF00FF00FF00FF00FF00F6
:1042D000FF00FF00FF00FF00FF00FF00FF00FF00E6
:1042E000FF00FF00FF00FF00FF00FF00FF00FF00D6
:1042F000FF00FF00FF00FF00FF00FF00FF00FF00C6
:00000001FF

