:0200000098283E
:10000800DF00030E8301B9000A08BA008A0150080C
:10001800A0000B1D22283B1C1A2883122508A200C9
:100028002508FF3C810005103B1020288312220878
:100038009B3E810005143B140B11322883120C1CC3
:100048003228A40A17308E00FC308F0024082302BF
:100058000318312820308506A4010C102008D00090
:0E0068003A088A00390E8300DF0E5F0E090091
:0C00760007308312DD00DD0B3E2808007F
:1000820083123C0883169B009C131C141A08D1008F
:060092005108D000080037
:1000980083123C08023A031D53281F1154281F15C8
:1000A8009F149F1855281E08D30083161E08D200D7
:0A00B8005208D0005308D1000800E0
:1000C200831203132230DC00D801D901DA01DB01EB
:1000D200DC03031997280310DB0CDA0CD90CD80CBB
:1000E200D30CD20CD10CD00C031C6928DC030319ED
:1000F20089285408D80755080318550FD9075608F8
:100102000318560FDA0757080318570FDB076D2835
:100112005408D80755080318550FD907560803186D
:0E012200560FDA0757080318570FDB070800BF
:100130000730831299001C3083169F000510851428
:100140000515051685128312851205143B14FA3025
:10015000A300A201A501A4011F179F159F175030EE
:10016000831681008B160230A100BC01412050088B
:10017000A1000B1783121016901083160C14173061
:1001800083128E00FC308F00B201B301AA01AB01D3
:10019000A601A701A801A901AE01AF01B001B101FB
:1001A000AC01AD018B1710140130A500FF30B40075
:1001B0001F143B200230BC004C205008AA005108FC
:1001C000AB000330BC004C205008B2005108B30013
:1001D00083121F102B08003C031DF0282A0821025F
:1001E0000318F7282108AA02031CAB03F928AA0167
:1001F000AB012A08D0002B08D100D201D30132086C
:10020000D4003308D500D601D70161205008B500CD
:100210005108B6005208B7005308B8002908530225
:10022000031D1C2928085202031D1C2927085102FE
:10023000031D1C292608500203182029B4095A2935
:1002400038082906031D2E2937082806031D2E29E4
:1002500036082706031D2E2935082606031D5A29B0
:100260002B08003C031D36292A08003C031853299B
:1002700038083106031D462937083006031D462974
:1002800036082F06031D462935082E06031D4A2968
:10029000B40971293508AE003608AF003708B00040
:1002A0003808B1005A292508643A031D58297129D4
:1002B000FF30B400340803196329643025020318A1
:1002C0006229A50A68292508013C03186829A503A5
:1002D0003508A6003608A7003708A8003808A90086
:1002E000D8283508A6003608A7003708A80038081F
:1002F000A9002508643A031D80298030A3008929BC
:100300002508013A031D87294030A3008929FA30C6
:06031000A300D8288A2991
:02400E00D431AB
:020000040000FA
:104200000200FF00FF00FF00FF00FF00FF00FF00B3
:10421000FF00FF00FF00FF00FF00FF00FF00FF00A6
:10422000FF00FF00FF00FF00FF00FF00FF00FF0096
:10423000FF00FF00FF00FF00FF00FF00FF00FF0086
:10424000FF00FF00FF00FF00FF00FF00FF00FF0076
:10425000FF00FF00FF00FF00FF00FF00FF00FF0066
:10426000FF00FF00FF00FF00FF00FF00FF00FF0056
:10427000FF00FF00FF00FF00FF00FF00FF00FF0046
:10428000FF00FF00FF00FF00FF00FF00FF00FF0036
:10429000FF00FF00FF00FF00FF00FF00FF00FF0026
:1042A000FF00FF00FF00FF00FF00FF00FF00FF0016
:1042B000FF00FF00FF00FF00FF00FF00FF00FF0006
:1042C000FF00FF00FF00FF00FF00FF00FF00FF00F6
:1042D000FF00FF00FF00FF00FF00FF00FF00FF00E6
:1042E000FF00FF00FF00FF00FF00FF00FF00FF00D6
:1042F000FF00FF00FF00FF00FF00FF00FF00FF00C6
:00000001FF

